:200000000040002031E8000001C9011001C9011001C9011001C9011001C9011001C9011045
:1C00200001C9011001C9011001C9011001C9011001C9011001C901103FC9011089
:20003C002DE9F84FDFF81885DFF8181588F80000002008600821DFF8100501700D21418052
:20005C004FF408718180DFF80405DFF8041501608A7EDFF800050270FF2ACB7E437008BF54
:20007C00FF2B0D7F85704E7FC6708F7F0771C97F417115D1FF2D08BFFF2E11D1FF2F08BF59
:20009C00FF290DD1DFF8D0140A7802704A7842708A788270CA78C2700A7902714979417149
:2000BC00DFF8B81402780A70FF2542784A7082788A70C278CA7002790A714079DFF8A02443
:2000DC0048710021DFF89C04057045708570C570057145711180DFF89004DFF89014466B0B
:2000FC00DFF88C247078087031781170B078DFF884140870B1680879DFF87C14421E0A70E9
:20011C00F078DFF878140870F068DFF87414086008B910F079FB3069DFF86844206008B9CF
:20013C0010F072FB2068DFF8607401688847216851F8042F38469047DFF85004DFF850140B
:20015C003862DFF8500478627069086008B910F05BFBB069DFF84014086008B910F054FBD0
:20017C00DFF838B4DFF838649BF8040011F01EF9306008B900F045B99BF80500DFF8247438
:20019C0011F014F9386008B9306837E19BF80600DFF8144411F00AF9206020B9306811F06E
:2001BC000DF938682AE19BF80700DFF8009411F0FDF8C9F8000038B9306811F0FFF8386895
:2001DC0011F0FCF8206819E1DFF8A4130A789BF80000DFF8DCA3921C504380B211F0E6F841
:2001FC00CAF8080058B9306811F0E8F8386811F0E5F8206811F0E2F8D9F80000FEE0DC48DB
:20021C000078002800F00281BBF80210DFF8A4B3484380B211F0CAF8CBF8040078B93068AC
:20023C0011F0CCF8386811F0C9F8206811F0C6F8D9F8000011F0C2F8DAF80800DEE0CC48FC
:20025C00007811F0B3F8DC49086080B9306811F0B5F8386811F0B2F8D9F8000011F0AEF88F
:20027C00DAF8080011F0AAF8DBF80400C6E0C04800781821484311F099F8D04A1060B0B99F
:20029C00306811F09BF8386811F098F8206811F095F8D9F8000011F091F8DAF8080011F099
:2002BC008DF8DBF8040011F089F8C348A5E0B0480078400111F07AF8C1490860D8B93068F5
:2002DC0011F07CF8386811F079F8206811F076F8D9F8000011F072F8DAF8080011F06EF807
:2002FC00DBF8040011F06AF8B348006811F066F8B249086882E09E480078000111F056F86B
:20031C00B0490860F0B9306811F058F8386811F055F8206811F052F8D9F8000011F04EF8F5
:20033C00DAF8080011F04AF8DBF8040011F046F8A148006811F042F8A049086811F03EF852
:20035C009F485AE08A480078000111F02FF89E49086018BB306811F031F8386811F02EF842
:20037C00206811F02BF8D9F8000011F027F8DAF8080011F023F8DBF8040011F01FF88E4809
:20039C00006811F01BF88D49086811F017F88C48006811F013F88B4908682FE074480078A0
:2003BC003021484311F002F8884A106070BB306811F004F8386811F001F8206810F0FEFF29
:2003DC00D9F8000010F0FAFFDAF8080010F0F6FFDBF8040010F0F2FF7748006810F0EEFF8C
:2003FC007649086810F0EAFF7548006810F0E6FF7449086810F0E2FF7348006810F0DEFFB1
:20041C00002010F001FA4FF4804192E03168012008713068057331684D733068857331686A
:20043C00CD7330680574002031684D743268D072A0223168487103213068C280017207204D
:20045C00316848720020326890722821306841820121C176002031684877326882F85E008A
:20047C00012031680877326882F85D00396808713868057339684D73386885733968CD73AA
:20049C0038680574002039684D743A68D072396848713A6890724FF4207039680022C880E5
:2004BC0008818A7401213A68D17421680D732268557321688D732268D57321680D740021AF
:2004DC00226855742368D9720121226811710021236859712168C880088100208872216836
:2004FC00887405202268D0743948016888472A490A6805461068804727490A6852F8043F5A
:20051C000020984718481D4BC16818780A88314902430A80284630490A6890470C212F4890
:20053C0000F05EF80F4800F05FF800F061F84FF4005198F80000BDE8F44F08F0B9BC00BF3A
:20055C006E4F0020044F0020604E0020084F0020B63F00502C4E0020E81200503C4E002017
:20057C000C4F0020344E0020783101006D4F00207B4F00206B4F0020724F00206C4F00203C
:20059C00F04E0020F44E00207C4B0020C9130100F84E0020D9130100FC4E00209C0E002034
:2005BC00104F0020144F0020184F00201C4F0020EC230020684E0020004F0020804E0020A9
:2005DC00844E0020884E00208C4E0020904E0020140D0020544F0020180D0020F84D002071
:2005FC00DFF800F0E5710110DFF800F01D6E0110DFF800F04D71011000B5ADF1140D0292B0
:20061C008DF80E10ADF80C0000208DF80F004FE29DF80E00102805D10299AC4810220AF019
:20063C00A7F985E218208DF80F0081E29DF80E00102805D10299AF4810220AF099F977E20E
:20065C0018208DF80F0073E29DF80E00042804D10298B049006808606AE218208DF80F003E
:20067C0066E29DF80E00012844D1AD48007801283CD0AC4800788DF810000298A94900788E
:20069C0008709DF81000B0B1A648007898B9AF480078022804D0AD480078052840F0488208
:2006BC00AB48017850200EF04FF8AA490246102009F0EAFC3CE29DF81000002840F03882DE
:2006DC0098480078002800F03382A0480078012808D09E480078042804D09C480078052891
:2006FC0040F02682012010F041FD21E212208DF80F001DE218208DF80F0019E29DF80E0075
:20071C0001284CD187480078012844D0844800788DF8100002988249007808709DF8100020
:20073C00D0B17F480078B8B988480078032808D086480078072804D084480078052840F037
:20075C00F7818348017850200DF0FEFF81490246102009F099FCEBE19DF81000002840F0BE
:20077C00E7816F480078002800F0E2817748007801280CD075480078042808D073480078A3
:20079C00062804D071480078052840F0D181012010F0ECFCCCE112208DF80F00C8E11820FE
:2007BC008DF80F00C4E19DF80E00022804D10298B84900880880BBE118208DF80F00B7E197
:2007DC009DF80E001F2821DCB54800211F220BF09BFA02999DF80E20B1480AF0C9F89DF880
:2007FC000E00B04908705A48017850200DF0ACFF0246AC480078AC490090A948012301904C
:20081C00102009F041FC8DF80F0091E118208DF80F008DE19DF80E001F2821DCA348002123
:20083C001F220BF071FA02999DF80E209F480AF09FF89DF80E00C049087045480178502085
:20085C000DF082FF0246BC48007897490090974800230190102009F017FC8DF80F0067E11F
:20087C0018208DF80F0063E19DF80E00012808D102980078042804DC0298B0490078087006
:20089C0056E118208DF80F0052E19DF80E00012808D102980078032804DC0298A849007841
:2008BC00087045E118208DF80F0041E19DF80E00062806D10298A34902680A60808888807E
:2008DC0036E118208DF80F0032E1C046982300209DF80E00012808D102980078072804DC5F
:2008FC00029899490078087022E118208DF80F001EE1C046A82300209DF80E0001280BD109
:20091C0002980078032807DC02989049007808700EE1C0467C23002018208DF80F0007E1D0
:20093C00310D0020300D00209DF80E00012808D102980078062804DA0298854900780870C5
:20095C00F6E018208DF80F00F2E0C04678230020702300209945011002980088ADF81000CD
:20097C009DF80E0002280DD1BDF81000062809DBBDF81000B0F5486F04DCBDF81000754955
:20099C000880D5E018208DF80F00D1E002980088ADF810009DF80E0002280DD1BDF810003A
:2009BC00062809DBBDF81000B0F5486F04DCBDF8100069490880BBE018208DF80F00B7E00B
:2009DC0002980088ADF810009DF80E00022809D1BDF81000B0F5FA7F04DABDF810005F494F
:2009FC000880A5E018208DF80F00A1E002980088ADF810009DF80E0002280DD1BDF810003A
:200A1C000A2809DBBDF81000B0F5486F04DCBDF81000534908808BE018208DF80F0087E01C
:200A3C00029800788DF810009DF80E00012819D19DF81000012815D14A4810F06BF868B973
:200A5C004349002008F01AFD8DF80F009DF80F0000286DD1444810F061FB69E016208DF835
:200A7C000F0065E018208DF80F0061E0BDF80C00282811DA9DF80E0002280DD102983B4934
:200A9C00BDF80C200388102009F0FEFA8DF80F004EE0C046320D002002208DF80F0047E0A9
:200ABC00D40C0020340D002009450110F30C0020BDF80C00A0F201301A28D7D801A151F8DB
:200ADC00200087462D0600004906000065060000890A00007F060000C3070000DD0700005A
:200AFC003108000085080000A7080000C9080000ED08000015090000890A0000890A00005B
:200B1C004509000075090000A9090000DD090000090A0000890A0000890A0000890A000089
:200B3C00890A00003D0A0000890A0000190700009DF80F0005B000BD350D002080230020D1
:200B5C0081230020230F00208223002083230020680E00206A0E00206C0E00206E0E002074
:200B7C00700E00206422002040220020BD84011010B5ADF1280D019100900198C00B2DD323
:200B9C0010F03CFE0690A94810F093FC02900298E0B10298006A800818D20298006A05901D
:200BBC000299059A086A90430862069800F090F90298406868B1029802994468059A0298A4
:200BDC00B1F92410C0680023A04702E0069800F07FF9019820F48040019043E101988008BE
:200BFC0010D305F05FFE019820F002000190A14810F05FFC002800F03581019840F002008B
:200C1C0001902FE10198800FC0F0B6809A48007828B104200EF07AFE97490020087000982C
:200C3C008068008840F60201814205D0009880680088B0F5C15F0AD10098009980688968A5
:200C5C00008A20F47C7040F43470088209E00098009980688968008B20F47C7040F4347036
:200C7C00088386480068002843D08548006801680420884700283CD080480068039081480B
:200C9C000068006B804704900098C068079003980499884203D203990498401A02E00399CC
:200CBC000498401A0099C8600098C168090BC16000980099428AC8688018C8600098079946
:200CDC00C068884206D20098C1680798401800994008C8600098C06840F6C411814204D308
:200CFC000098C068B0F5FA7F03D2009840F6C411C1606548007810F00F0F10D10098408CD9
:200D1C0040F6090181420AD1009880690790079C00986FF4807100224FF00073A0475B48D4
:200D3C005B49002210F072FD5A48007868B10220ADF81C0007A80FF043FBBDF824005649E8
:200D5C00401108805349002008705449012008705349002008700BF083FB009840690690B0
:200D7C00069C0098002100224FF08063A047019820F00050019075E00198000958D3494894
:200D9C00007818B147490020087049E046480068703010F02BFD06A80BF0A4F88DF81C0001
:200DBC009DF81C0018B14148069910F0EEF83B49002008703E49012008703E4810F072F962
:200DDC0005F0F2FF3C48007820B937480068383010F026FD02200EF099FD112008F096FD58
:200DFC000098007C10B90E2008F090FD33480078012805D131490020087005200EF086FD9D
:200E1C002B49002008702E49002008702D48007830B12C49002008702B48042110F008FD23
:200E3C00019820F0080001901CE0C046502300200198800B16D3254810F03BFB02900298E3
:200E5C0060B10298406848B10298029944680298B1F92410C06800222023A047019820F4B0
:200E7C0000500190019818B10199174810F0E0FC0AB010BD54230020862100206C210020AC
:200E9C00E00100108C01001091230020C4220020098400007D210020F8200020802100208A
:200EBC00812100208421002068210020D421002082210020397000007C21002085210020E2
:200EDC00832100207F210020FC2000204C230020DFF800F061C0011000B5ADF1140D0392A5
:200EFC008DF811108DF8100000208DF8120059E09DF81100022813D103999DF8112031481C
:200F1C0009F036FD0F200090FF2001902F482D4902902D482E4B0068002207F07FFE4CE083
:200F3C0018208DF8120048E09DF81100012813D103999DF81120274809F01AFD0F2000904B
:200F5C00FF2001902148234902902348204B0068002207F063FE30E018208DF812002CE0BB
:200F7C009DF81100012806D103999DF811201B4809F0FEFC21E018208DF812001DE09DF895
:200F9C001100012806D103999DF81120144809F0EFFC12E018208DF812000EE002208DF82C
:200FBC0012000AE09DF810000028A1D0401EBBD0401ED5D0401EE2D0F0E79DF8120005B0AC
:200FDC0000BDC046120D00200C24002005620000BC080020970D002010240020950D00207E
:040FFC00960D00202E
:20100000B41200001810000015AB0110FDB301106DC00110FDAE011099B5011000000000F7
:08102000000000002D0000009B
:20102800B01200003C100000B1C00110A9BF011067C0011069B80110000000000000000035
:041048003000000074
:20104C00B012000060100000BDC00110CDB30110D9BD01106DB3011000000000000000005B
:04106C00310000004F
:2010700000000000AC0E002004000000000000000000000020000000E8C901103000000070
:2010900028100000B40E00200400000000000000000000000C000000D8CA0110180000004B
:2010B0004C100000BC0E002004000000000000000000000024000000F0CA011018000000CF
:2010D00000000000C40E00200400000000000000000000001000000018CA01102C000000DB
:2010F00000100000D40E0020040000000000000000000000200000006CCA0110240000003F
:20111000FFFFFFFFDC0E00200400000000000000000000002800000090CA011024000000FE
:20113000FFFFFFFFE40E00200400000000000000000000001400000008CB0110180000007D
:20115000FFFFFFFFEC0E002004000000000000000000000058000000B4C90110340000004B
:20117000FFFFFFFFF40E00200400000000000000000000001000000020CB01101800000019
:20119000FFFFFFFFFC0E00200400000000000000000000001C000000B4CA01102400000046
:2011B000FFFFFFFF040F00200400000000000000000000003800000044CA0110280000006D
:2011D000FFFFFFFF0C0F00200400000000000000000000005400000078C901103C000000E2
:0811F00001000000483101007C
:0411F80001000000F2
:0411FC0000000E00E1
:0412000000000F00DB
:0412040032000000B4
:0412080001000000E1
:04120C00680D002049
:0412100000020000D8
:0412140000000000D6
:0412180001C90110F7
:04121C0000000000CE
:0412200000000000CA
:0412240008000000BE
:0412280000002200A0
:04122C00300B002063
:0412300000000000BA
:0412340000000000B6
:0412380008000000AA
:04123C00940C0020EE
:0412400000000000AA
:0412440000000000A6
:04124800080000009A
:04124C00000000009E
:04125000000000009A
:041254000000000096
:041258000000000092
:04125C00010000008D
:04126000C80B002097
:041264000600000080
:041268000100000081
:04126C00980A0020BC
:04127000000000007A
:041274000000000076
:041278000002000070
:04127C00000000006E
:02128000290043
:02128200010069
:02128400250043
:02128600300036
:02128800310033
:02128A002D0035
:02128C0001005F
:01128E00015E
:0812900003000000C030010062
:0812980000000000000000004E
:0412A0000000010049
:0412A4000000030043
:0412A80013C401105A
:0412AC00D30F01005B
:0412B000B812000070
:0412B400B81200006C
:0412B8000000000032
:0412BC005C0E0020A4
:0412C0009512010082
:0412C4002000000006
:0412C800B42F01003E
:0412CC00E82D010008
:0412D00029C101101F
:0412D4008FEA00009D
:0412D8008BF0000097
:0412DC00A1C7011095
:0412E000A3C701108F
:0412E4000000000006
:0412E800753101005B
:0412EC00582C010079
:0412F000702C01005D
:0412F400402C010089
:0212F8000200F2
:0212FA000900E9
:0212FC000100EF
:0212FE000000EE
:0113000001EB
:04130400D9110100FA
:0413080015F70000D5
:04130C00B105010026
:041310002DFA0000B2
:0413140061FA00007A
:0413180081E500006B
:04131C0099C3000071
:04132000151501009E
:04132400ADD6000042
:0413280015C70110D4
:04132C0025C70110C0
:2013300000B5ADF1240D029000208DF80C0045E202980490049840788DF814009DF81400EB
:2013500058BBA648A649022210230090102008F0A1FEA84803221023A1490090102008F0F5
:2013700099FE0498A849C01C02680A6080888880A64801210170A648017850200DF0EAF941
:201390000246A4480078A5490090A34801230190102008F07FFE8DF814009DF8140010B1CB
:2013B0009A480821017001208DF80C0030E20298049004984078002830D10498C07890B11D
:2013D0009348017850200DF0C5F902469448007892490090A94800230190102008F05AFE52
:2013F000049948701AE089480078022816D087480078072812D085480078062803D1A548A9
:20141000007801280AD181480078032806D0A9480FF086FB10B901200FF0AEFE04984078A4
:20143000002800F0F58179480821017001208DF80C00EDE1029804900498407800283CD17C
:2014500002988078032812D170480078062803D16E480721017033E0A948007818B16B4863
:20147000022101702CE069480321017028E0AC48008858B1A248007810B98648007880B147
:20149000A74801888B480CF09BFF0AE09C480078012803D19A490020087002E07D490020D5
:2014B00008705A480078072803D158480621017006E056480421017002E05448082101701D
:2014D00001208DF80C00A3E10298049004984078002842D10498B449001D02680A60808877
:2014F00088800498B149408908804848062101700498AF49C08908800498AE49008A0880BB
:201510000498AD49408A08800498B649C0780870B5480078012803D0B348007802280ED19F
:20153000B24910201F2208F0B5FDADF81400BDF814004FF47A714143AD480CF041FF049884
:201550004089AC490090042001900498049BC2781B1D102008F09EFD0DE00498407831286E
:2015700006D167490020087028480421017002E026480821017001208DF80C0048E10298D7
:2015900004900498AC498288102008F083FD8648002106220AF0BEFB854900200880854956
:2015B000002008808449002008800498A349807908708F480FF0B8FDA1480FF0B5FD0120BF
:2015D0008DF80C0079494FF6FF7008803148007840B10E48032101701AE1C04698230020C3
:2015F000FB09010004988079082805D107480521017004E0A8230020044804210170012083
:201610000FF0BAFD04E1C046142400207823002070230020340D0020D40C00200945011093
:20163000350D00200298049085480FF07DFD04984078002840F0EC8004985D49C08808809A
:2016500004985C490089088004985B494089088067480FF065FA002840F0DA8079480068AF
:20167000002800F0D580774852490068524A036809884F48128800889847C9E0F30C002033
:20169000029804900498704982880523102008F001FDBDE0310D0020029804900498808892
:2016B000ADF8140050480078052805D100208DF81E0072E01C22002001208DF81E004C4883
:2016D0000FF032FD48480078012803D046480078042839D15D4804990088C988884202DDC8
:2016F0005A48008801E00498C088ADF816005848049900880989884204DD5548008803E026
:20171000300D002004980089ADF818005148049900884989884205DD4E48008804E0C04636
:20173000320D002004984089ADF81A004A48049900888989884202DD4748008801E0049810
:201750008089ADF81C0028E027480078032803D025480078022810D13C480088ADF816000B
:201770003B480088ADF818003A480088ADF81A0039480088ADF81C000FE00498C088ADF886
:20179000160004980089ADF8180004984089ADF81A0004988089ADF81C003049102005AA5F
:2017B00008F078FC34E0C046290F0020360D0020380D00203A0D00203C0D00200298807811
:2017D000052819DC05283FF47FAE00283FF4B0AD801E3FF4ECAD401E3FF42CAE401E3FF42C
:2017F00029AE15E03E0D0020680E0020F584011040220020E9850000801F3FF4C0AE401EF4
:201810003FF410AF08383FF43BAF801E3FF444AF9DF80C0001280CD11148006848B11048EC
:201830000068006828B10E48006801680D480078884709B000BDC04611DC00003F0D002057
:2018500064220020480D0020C11701106A0E00206C0E00206E0E0020700E002005160110DC
:20187000440D00207823002000B5ADF11C0D00208DF80C00002002900CF000FB0DF0B0FFAA
:201890004FF0004000210BF099FD48490860474800680FF045FE454800680021012231A3C8
:2018B0000EF0B6FB414800680221002231A30EF0AFFB3E4800680321002231A30EF0A8FB0E
:2018D0003A4800680421002230A30EF0A1FB374800680521002230A30EF09AFB33480068E2
:2018F000062100222FA30EF093FB3248324909F079F92F4908602E48006800B9FEE72C4801
:201910002E4900680FF042FE00B1FEE714200FF0E3FB68B92548006808210022CDA30EF043
:2019300077FB23480068152100220DF09BFD0CE01E48006808210022CAA30EF069FB1C482D
:201950000068152101220DF08DFDCA4800680068804702900298082832D004F05FF978BBA9
:20197000FEE7C046424C4520504F5745522042414E4B00C04348415247453A2000C046C026
:20199000564F4C544147453A2000C04652454D204341503A2000C04643555252454E543A30
:2019B0002000C04654454D503A2000C0980D002024230020E0230020C00D0020EDCA0000AE
:2019D00001F05CFAAC48AD4908F0BAF8AD480FF0A1FBAB490860AC4880220223AB490090F1
:2019F000102008F057FB8DF80C009DF80C0050B15F20A749009080220223102008F04AFBF7
:201A1000A1495F200880A348A049812202230090102008F03FFB8DF80C009DF80C0050B104
:201A300019209B49009081220223102008F032FB98491920088001200090012097490190E7
:201A5000954847F2305200230BF06AFB01200090042092490190924841F2883200230BF035
:201A70005FFB904910201F22062308F013FB01208DF81A000020ADF8100000208DF81B002E
:201A90005020ADF812004FF44870ADF814000020ADF816004FF47A70ADF8180001210DF176
:201AB0001A0240F20530FEF7ADFD40F20630022104AAFEF7A7FD7C4A4FF442701921FEF738
:201AD000A1FD7A4A40F207300721FEF79BFD4FF4447001210DF11B02FEF794FD40F2113049
:201AF00002210DF11202FEF78DFD40F21230022105AAFEF787FD40F2133002210DF11602B5
:201B1000FEF780FD4FF44570022106AAFEF77AFD67480022152367490090102008F0BAFAE7
:201B3000A020ADF810005F49BDF810300622102008F0B0FA5B49BDF810301020072208F09F
:201B5000A9FA5849BDF810301020082208F0A2FA5449BDF810301020092208F09BFA0120B3
:201B70008DF8100001208DF8110000208DF8120001208DF8130004A84FF4806201234E490D
:201B90000090102008F086FA0DF111004A49009040F202420123102008F07CFA0DF1120083
:201BB00040F20342012344490090102008F072FA0DF1130040F2064201233F4900901020D2
:201BD00008F068FA3D4910204FF0FF3208F062FA3B4910204FF0FF3208F05CFA09F064FE54
:201BF00038480EF097FD002002210022FFF77AF9354A01200121FFF775F9264A022001211B
:201C1000FFF770F9204A03200121FFF76BF92F480EF052FA2E492F4A102008F03BFA1648E0
:201C3000017850200CF096FD2B490246102008F031FA1148017850200CF08CFD274902468E
:201C5000102008F027FA2649102008F023FA07B000BDC0465042204348415247453A204FF8
:201C70004E00C0465042204348415247453A204F464600C0E8010010182300201C230020FC
:201C900020230020D42300203023002021050100FB090100A80D0020F82100208510010077
:201CB000B0210020BD8401104C0D00201C0F0020800D002095B50000813C0000490401000B
:201CD00005080100340F0020AA0D0020380F0020350A01008C0E002051880110318101109E
:201CF000C5AB0010BB482DE9F84F0025BA4CB849056094F8E200002800F06581012800F0DE
:201D10002F81B64E02283CD0032840F05C8151F8250CD4F8B8100029A0F5C060C4F8D40015
:201D3000B8BF49420028B8BF4042814226DA4FF08057D7F8A4014568B4F8BC0030214FF47A
:201D50007F42082300903046A847D7F8A4014568B4F8C00004214FF4F80212230090304668
:201D7000A847D7F8A401B4F8D070456820214FF440620A2330460097A847012584F8D8503E
:201D90001CE151F8258C0FF0E9FB2F4600B901273946934F38680028FCD0B146012609F1F6
:201DB0000409D9F82CA03E6009B10FF0DDFBCAF30720C4F8BC000FF0D1FBAA4600B9B24672
:201DD0003B68002BFCD0D9F800B0BAF1000F3E6001D00FF0C9FBCBF38440C4F8C0000FF0EF
:201DF000BDFBAA4600B9B2463B68002BFCD0D9F81C90BAF1000F3E6001D00FF0B5FBC9F3CF
:201E10008120C4F8D000B8F5C061C4F8B81000F09C8094F8D80068B9C4F8D410D4F8C00076
:201E3000C4F8C800D4F8BC70C4F8C470D4F8D030C4F8CC30D4F8D410D4F8BC30002954BFFE
:201E500002206FF0010004F1C802176801EB41014018411000EB917107EBA1001060D4F81F
:201E7000C810C4F8C43000291CDD1E293CDDD4F8CC0030B93429B4BF15391E21C4F8C810D6
:201E900025E02A29BABFD4F8C8000B381E20C4F8C800D4F8C4003F28B4BF401C3F20C4F8E7
:201EB000C4001FE0D4F8CC00032812D011F10B0FC6BFD4F8C8000B30301CC4F8C800D4F89E
:201ED000C4000028C4BF401E051CC4F8C450032508E011F1150FC6BFD4F8C8001530301C54
:201EF000C4F8C800C4F8CC504FF08057D7F8A401B4F8C43030214FF47F4245683748009338
:201F10000823A847D7F8A40104214FF400321123456832480096A847B4F8C860D7F8A40161
:201F300004214FF4F802122345682C480096A847D7F8A40120214FF440620A23B4F8CC60B5
:201F5000456826480096A84701E084F8D85040F2FF50404502D8801C40452FD2082030E012
:201F700051F8251C1F4F4BF2F5204843060A3868C0F3814001280CD11B4800680068804758
:201F90000DF07CF80FF0F6FA3111C010484306EBE03694F8E50030B91448006820F07F4040
:201FB0008019460801E084F8E5501148310C0660012741600F4D8760287808B90B2000E024
:201FD000052084F8E40003F09BFCBDE8F88FC0462D400C402C500C40A807002000A00C4074
:201FF00000800C40B43F0050EC010010102009403C600C40412F01002DE9F04F09AFADF148
:202010003C0D08900A92388809911E46ADF81800101C08BF002000F06C81017800274FF0E9
:20203000010B401C4FF0FF39B846DA460A9058E1252940F04D810178401C0A902D2918BFD8
:20205000ADF8068004D10178ADF806B0401C0A9030291CBF4246434604D10178401C5A4617
:202070005B460A902A29CDF800804D4617D1049330680A9BCDF80890C01C20F00300001DC5
:20209000306050F8044C1978002C009403F101000A9018D5ADF806A06442009413E0444639
:2020B0000AE0600000EBC4004018A0F130040A9801780094401C0A90302901DB3A29F0DBF2
:2020D000CDF8089004932E2929D10178401C2A290A9011D13168CDF80880C91C21F0030127
:2020F000091D316051F8045C002D48BF454601782B46401C0A9011E0454643460AE068007A
:2021100000EBC5004018A0F130050A9801782B46401C0A90302901DB3A29F0DB02930AB1AC
:20213000224604926C2904D04C2918BFADF8048004D10178ADF804A0401C0A900BA8CDF8AE
:202150000C800FAB07906429059379D0692977D0BDF818C0752965D0782961D06F295DD054
:20217000702946D0632936D073291AD00A98401E0A900998012812D961490C68B5F1FF3F37
:2021900003D0A84288BF6D1C00D8099D029508A80AA932466B46A0473F18039865E0454658
:2021B00017E03068C01C20F00300001D306050F8040CBCF1010F014608B94FA001460791F9
:2021D0000EF0F8FF0390B5F1FF3F4FD0A8424DD9039528464AE03068C01C20F00300001D80
:2021F000306010F8040C8DF82C005D46039558463CE0082035680490E81C20F00300001DF4
:20221000306050F8041C082210230FA80AF07EFA401E079040210170079823E0082302E0BA
:20223000102300E00A233068C01C20F00300001D306050F8041CAA42BCBF2A1C04920DE082
:202250003068C01C20F00300001D306050F8041CAA42BCBF2A1C04926FF009030FA80AF073
:2022700055FA07900599081A0390009C241ABDF8065000945DB906E008A8202109AA0DF0FF
:20229000F1FE7F1C009C641E0094F5D50398401EB0F1FF3F03900FD1BDF8060001281CD10C
:2022B0000098401E009018D408A8202109AA0DF0D9FE00987F1CF4E70798017809AA08A89B
:2022D0000DF0D0FE0798401C079003987F1CDEE708A809AA0DF0C6FE7F1C0A980178401C60
:2022F0000A9000297FF4A4AE089808B14146017038460FB0BDE8F08F286E756C6C2900C0C8
:20231000543101002DE9F04FB64D686885B0019020B905B0BDE8F04F0FF052BD0178DFF869
:20233000C882B24EDFF8C892DFF8C8A201291CBF0229042946F2A81741F64C5B05D0402961
:2023500018BF802900F09A8043E10FF067F90028FAD00198007805F05DF90090446814B909
:2023700000200EF057FA9AF80100002860D001F0A5FE0EF0E3FE02900168009801914F68A4
:202390000AF00AFB022827D000990A78012ADBD1994B19680A7A19F80230337018B90FF07C
:2023B0000BFD5844A0602069C17E01F0EF01C1762069C17E41F08001C1762069C17E01F01F
:2023D000F00141F00201C1768C48B96841182069C16101210098A0E001980178802913D1BF
:2023F0000822874832700178012903D09AF80100012803DD38690121C17213E0D8F828102F
:202410003A690878D0720DE07D49072030700A783869012A02D10123C37203E0D8F8281068
:202430004A78C2720298817901988AF80210CBE00098002888D00199009A0078914205D1BD
:2024500001281CBF00200EF0E5F915E0012840F0C080694801680A7A19F8020030700FF08E
:20247000ABFC3918A0680FF0A3FC18B90FF0A4FC5844A0600120A8700098A5E09AF80100B9
:2024900000287DD001F01AFE0EF058FE04462068029047689AF802000EF050FE03900FF0D5
:2024B000C3F810F0070F3DD0A87805F0B3F8019041680198009102990AF06EFA022831D0E2
:2024D00001990A78012A2AD14B4B19680A7A19F80230337028B90FF06FFC83440098C0F8C7
:2024F00008B000990869C17E01F0EF01C17600980069C17E41F08001C17600980069C17E4A
:2025100001F0F00141F00201C176009AB9683B4841181069C16101210198A97054E0002004
:202530000EF078F90398A04228D002980178802913D10822324832700178012903D09AF8B9
:202550000100012803DD38690121C17213E0D8F828103A690878D0720DE0294907203070E5
:202570000A783869012A02D10123C37203E0D8F828104A78C272A0798AF80200029823E0B6
:202590000FF052F810F0070F29D0A87805F042F804462078D4F80480012820D116490A6867
:2025B000107A19F8001031700FF006FC3918D8F808000FF0FDFB20B90FF0FEFB5844C8F871
:2025D00008000120A870204605B0BDE8F04F07F001BA05B0BDE8F04F00200EF01BB905B0B9
:2025F000BDE8F08FEC230020783101006F4F0020289A0110684E0020104F0020F0D8FFFF02
:20261000734F00202DE9F04F0C46E00789B00BD50EF0AAFE28B100218160A448006800B19B
:20263000804784F001003EE1A00710D5002006900021049000230290009005910393019135
:2026500001223C200FF0B0FB84F002002BE11D256007974E974F40F18A8000200790834690
:2026700095498878FF2804BF00200EF0D3F8386890F8A0000EF062FD80463868C07A98F844
:202690002691022818BF032808F5907A06D106F10D000FF085FB08B906F1070B51464846F7
:2026B0000FF07AFB88B33868807A002818BF012804D1314650460FF06BFB04E05246494647
:2026D00030460FF061FBFF2834D005FB00F906EB090506225146E81D0EF0C8FB16F809005A
:2026F00040F00209E81D079006223868817E01F0010188F8261105F1010A386800F11401DB
:2027100008F590700EF0B2FB14E0514648460FF037FB78B15246494630460FF035FBFF289B
:2027300008D006F10D01454348190FF039FB08B149F0020908F12C004B4601780691418903
:2027500009090591B8F82220079904920122C088029140080390CDF804B0CDF800A00020C2
:2027700098F806100FF020FB84F004009BE0200610D50020069000210490002302900090DB
:2027900005910393019101223B200FF00DFB84F0800088E0E0043BD5F11D06F10D000FF085
:2027B000EBFA38684179012923D1017A012918BF04291ED1C17A022918BF032919D1817EC2
:2027D00000F1140230460FF0DFFAFF2811D04543354405F10D000FF0E3FA50B9E91D05F1A7
:2027F0000D000FF0C9FA38680622E91D14300EF03DFB324932484A6800784FF480510BF084
:2028100093FE10B18E2009F0C7F984F480504AE0A00505D50EF0A2FE2A4901200860FEE77F
:20283000610504D507F0DDFC84F480603BE0600405D5812009F0B0F984F4804033E0A00496
:2028500030D5214D286810B100200DF0E3FF4FF0FF3028600FF08CFA1C4D296851F8202F98
:20287000684690471A48016A426A2D68009101921849029100F128014A6809781368C069AC
:2028900003938DF81010ADF812006B462E68124A12491348B0471349086003F03FFB84F47D
:2028B000005000E0002009B0BDE8F08F204F0020AC450020104F0020684E0020784E002000
:2028D0006E4F0020FC002043044F0020F04E0020680B0020691301002C4D00206845002065
:2028F00088490020EC4E00202DE9F04F09AFADF1540D09910A920B933E79089039680D960A
:2029100002460C91B2E888506946A1E888508CCA81E88C008069077837F07F070ED0C168D9
:2029300087680F9142791097067912922E2E119602DC11462E290ADA007909E020277E26B3
:202950001197D0F8C4101296001D10900F912E2013901EE1119ABDF90810BA424FEA42003E
:2029700002DC129ABA4203DA139AC0EB420003E0119A7800A0EB4200109A0F9F099E105A0E
:202990000B9D38180E90721C0992401C047807902819814200F3FA8000250226A9462F46D7
:2029B0000E9890F800A0B24540F3F080BDF90E00B842C0F2EB800698007810F07F0F18D038
:2029D0000E98835D7BB98019407830F07F0305D14FEAC008B61C4FF0000B82E04006B61CCD
:2029F0004FEA905B84E04FEA231803F00F0B761C77E04FF0000802E0761C4FF00009B245DB
:202A10000EDD0E98805D00FA09F00EF007F90828C8BFC9F1080080448144B9F1080FEBD0C9
:202A30004FF0000B02E0761C4FF00009B24558DD0E98805D00FA09F0C0430EF0EFF80828C6
:202A5000C8BFC9F1080083448144B9F1080FEAD047E0B8F1020F22DB681C84421FDDBDF93C
:202A70000A0008EB05018C42B4BFA4EB050AC246B84210DC0D9B73B10B9C08982919406978
:202A90000C9C0AEB010204903B19521E68460BF0BCFB07980478A8EB0A0855441DE00B98D5
:202AB000BDF9083029188B4214DCBDF90C00884210DBBDF90A00B8420CDC0D9B53B1089BB2
:202AD00058680C9A9B8A89B2BA1892B20EF0DBFC07980478A8F101086D1CAC4204BF7F1CA3
:202AF0000025B8F1000F03D0BDF90E00B842B0DABBF1000F3FF454AFBDF90E00B842FFF62A
:202B10004FAFBBF1020F20DB681C84421DDDBDF90A000BEB05018C42B4BFA4EB0508D846F4
:202B3000B8420EDC0B9C0898291900690C9C08EB010204903B19521E68460BF066FB079810
:202B50000478ABEB080B45441BE00B98BDF9083029188B4212DCBDF90C0088420EDBBDF904
:202B70000A00B8420ADC089B58680C9A1B8A89B2BA1892B20EF087FC07980478ABF1010B18
:202B90006D1CAC4204BF7F1C0025B1E70B9824180B94099890F900705FB10A98401EB0F1CA
:202BB000FF3F0A9005D0BDF90C000B998842BFF6D1AE15B0BDE8F08F2DE9F04FD0F804A04A
:202BD000ADF1140D029080680D4603902868002800F043810EF018FEDAF8881021B1FEF715
:202BF0007DF90320287438E101212974CAF88850FEF774F99AF8A40038B19AF88D2099497C
:202C1000DAF89C0011430CF06DFE6F680EF0FCFD04469AF8D80078B917F0704F06D12FB14B
:202C300004200CF05FFF06200CF05CFF02200CF059FF01208AF8D8002046FEF74FF903985A
:202C5000D0F80090D9F8040040F00200C9F804009AF80070002F01976AD1DDF80CC028680B
:202C7000DCF81C10814264D9AE6864460EB90AF1A6066F682FB9E0890AF1A607AAF8A600FE
:202C90002868DAF8141009292CBF4FF002094FF001095FEA000823D0DAF8140009280BD3B5
:202CB000206839880EF048FD206869460EF068FCBDF8000030800AE0206839780EF03CFD20
:202CD000206869460EF05CFC9DF800003070AB6803B14E446B6803B14F44B8F10108DBD151
:202CF00020460168486820F0020048606F680EF08BFD04469AF8D80078B117F0704F06D1B4
:202D10002FB106200CF008FE04200CF005FE02200CF002FE00208AF8D8002046FEF7DEF8AF
:202D3000DAF8881000200874CAF88800012095E02868DDF808C0DCF80840DCF8046027688D
:202D500096F88C1082B2B7F1804F02FA01F21FFA82FB14BF444F454FAA68DFF814C152B946
:202D700096F88C104FEA8108614601EB0802936906F1A60209E096F88C104FEA81086146A3
:202D900001EB08031B695A44521EBB607A60216808313960BA68000143F6F07E10380EEA40
:202DB00000000243BA602368B3F1804F14BF314A314A6F68C7B9E0890CEB0807A6F8A600D3
:202DD000B86906F1A6039060039913609AF800702368D1F8009001972F6803F10801754656
:202DF00038011038284007E00CEB0805AD6895600BEB07056D1E15605160916808439060FE
:202E1000D6F8A07020696169014378680068019D8162586A40F003005862D9F81400002DA3
:202E300040F00100C9F8140080D1DAF804100AF16C0004460EF014FA00283FF477AFDAF835
:202E50008800017C012904BF03210174029805F023FD204600210EF003FA002005B0BDE82C
:202E7000F08FC0460000068000050020300400200C2D010010050020400400200EB56FF0C9
:202E90003100ADF8040091491C200DF09BFB38B98F4800680221002267A30DF0B9F80EE084
:202EB0008A48008800908A4800680221002265A30DF0AEF8854A00200221FEF713F885490E
:202ED00004200DF07FFB38B9814800680321002260A30DF09DF80AE07E48B0F90000009061
:202EF0007B480068032100225EA30DF091F87A490C200DF067FB38B975480068042100221F
:202F10005CA30DF085F80AE07348B0F9000000906F480068042100225AA30DF079F86F49C1
:202F300010200DF04FFB38B9694800680521002258A30DF06DF860E06848B0F90000009032
:202F5000634800680521002256A30DF061F86348B0F90000002821DD6149012008705B4857
:202F70006049B0F90000B1F9001088420AD15E48007838B95C49022008705B4A012001215A
:202F9000FDF7B0FF51485749B0F90000B1F90010884232DA5449002008702EE05049002010
:202FB00008704E49BDF90400B1F90010884203DD4E490120087002E04C490020087043480A
:202FD0004B49B0F90000B1F9001088420AD14648007838B9444901200870434A0120012158
:202FF000FDF780FF39484249B0F90000B1F90010884202DD3C49002008703E4902200DF073
:20301000E1FA38B9324800680621002229A30CF0FFFF0FE03749B1F900100A2091FBF0F024
:20303000A0F2111000902A480068002224A306210CF0EEFF0EBDC0464348415247453A2095
:20305000457272004348415247453A202564252500C046C0564F4C544147453A2045727205
:2030700000C046C0564F4C544147453A2025646D5600C04652454D204341503A2045727261
:2030900000C046C052454D204341503A2025646D416800C043555252454E543A2045727223
:2030B00000C046C043555252454E543A2025646D4100C04654454D503A2045727200C046C1
:2030D00054454D503A3A2025644300C028230020980D00202A2300202C2300202E2300200D
:2030F000AC0D002030230020AA0D0020AB0D0020A80D0020A60D00200EB50091ADF8040020
:2031100000208DF80600A8E07948009900780870EAE000987749102207F030FCE4E000984F
:203130007549102207F02AFCDEE07448009900680860D9E0724900980A680260898881809D
:20315000D2E07048009900780870CDE06E48009900780870C8E06D48009900880880C3E0D7
:203170006B4900980A786B4907F008FCBCE06A4900980A78694907F001FCB5E068480099D5
:2031900000780870B0E06748009900780870ABE0654900980A68026089888180A4E0634881
:2031B0000099007808709FE061480099007808709AE0604800990088088095E05E48009946
:2031D0000078088090E05D480099008808808BE05B4800990088088086E05A480099008841
:2031F000088081E058480099008808807CE0574900980A6802608988818075E05448009989
:203210000088088070E053480099008808806BE0514800990088088066E05048009900787E
:20323000087061E04E480099007808705CE04D4800990078087057E0BDF80400282808DA2A
:203250004949BDF80420102006F024FF009908804AE002208DF8060046E0BDF80400A0F53E
:2032700040701D28E8D802A151F820008746C04619310000233100002F3100003B31000040
:20329000453100005331000067310000713100007F3100008D31000097310000A1310000E2
:2032B000AF310000B9310000C331000049320000CD310000D7310000E1310000EB31000091
:2032D000F5310000FF3100000D320000173200002132000049320000353200005D3100003D
:2032F0002B3200003F3200009DF806000EBDC0467923002098230020A82300207C23002043
:2033100014240020300D0020310D0020320D0020340D0020D40C0020350D0020F30C002049
:203330008023002081230020230F00208223002083230020360D0020680E00206A0E002088
:203350006C0E00206E0E0020700E0020290F0020380D00203A0D00203C0D00203E0D002091
:20337000782300203F0D0020F58401102DE9F04F8246DAF800600C465FEA0208ADF11C0DD1
:2033900014BF00214FF0FF3106F1480083460DF067FF002818BF0B2040F00D810025884872
:2033B000F460B8F1010F057007D0657002200CF099FB06200CF096FB01E001206070207800
:2033D000012840F2AB80801E012868D9801E012833D9801E012800F2DF800EF015FA0690C1
:2033F0004FF0805000F5EE77D0F8DC01A378466A009321782846062908BF01200190012081
:203410000290A068228AE1686368B04781460698FDF764FDB9F1000F40F0C080B8F1000FB0
:2034300002D00DF0E7FC02E050460CF08EFC002800F0A4803868806A2AE00EF0E5F906908A
:203450004FF0805000F5EE77D0F8DC01012306680093A168A27860682478AC46042C08BFB9
:203470009C466346B04781460698FDF737FDB9F1000F40F09380B8F1000F02D00DF0BAFCF4
:2034900002E050460CF061FC002877D03868406880474A49C1F8B0510D6081467EE00EF0F0
:2034B000B3F906904FF0805000F5EE76D0F8DC01E38A87690093E0680190208B0290A0788F
:2034D0000390207D04900121059122782846022A08BF081CE1786268A368B84781460698AF
:2034F000FDF7FCFCB9F1000F58D1B8F1000F02D00DF080FC02E050460CF027FC00283DD01F
:203510003068006A80475FEA000947D13068C569A168E28A2369E078A847BEE70EF074F94A
:2035300006904FF0805000F5EE76D0F8DC01E38AC7680093E0680190208B0290A0780390E8
:20355000207D2946049001200590257805B9014608466268A368E178B84781460698FDF78F
:20357000BDFCB9F1000F19D1B8F1000F02D00DF041FC02E050460CF0E8FB08B914201AE0D5
:203590003068406980475FEA000907D1306802692169E078904780E74FF0FF39B8F1010F96
:2035B00005D002200CF0B8F906200CF0B5F958460EF03CF9484607B0BDE8F08F5045024076
:2035D000482400202DE9FE4F05467F48002400680094C0090ED37D48007858B97D497C4838
:2035F00051F8112C104040F0817041F8110C20200BF07CF9012D40F0E280DFF80892D9F8BC
:20361000DC00012840F0D8800220C9F8DC000DF0A1F801200BF06AF95FEA000805D00120F2
:20363000C9F8DC000DF0A6F8CBE00EF003F9A34602906948694DC0F800B0A86A01680120B7
:203650008847012804D1584609F0DCF9012000906348644FC0F800B0386811200DF0A2FF3B
:2036700000B1012410200DF09DFF08B144F002040F200DF097FF08B144F004040B200DF0C9
:2036900091FF20B12868584E016B308888470A200DF088FF20B12868544E016B30888847EC
:2036B0005348012606602868816944F020008847504806600DF070FF00F0010101914008FF
:2036D00014D2286A81684C4888478246BAF1040FF7D0BAF1010F04D1286A4268464803214B
:2036F00090474649086820F003000860584600F0EFFD2B683868986B8047019801280CD054
:20371000BAF1010F04D1286A42683B48314690473A49086840F003000860314806602868FF
:203730004169204688470B200DF03CFF20B128682D4BC16A188888470A200DF033FF20B19A
:2037500028682A4BC16A18888847294806600322C9F8DC20274BC3F800B02868416B204682
:2037700088470128F9D1386804200BF0BFF80446194806603868144800688009FBD300989D
:20379000012802D1304609F03DF90DF0EDFE08200BF0ACF807460298C9F8DC600EF0E4FA09
:2037B0001748008808F02AFE0CF0E4FF57EA040018BF4FF0FF3804E06FF0040801E06FF0F2
:2037D00001084046BDE8FE8F1410094090080020FFFFFCFC150009400C400940B801001041
:2037F000000222432C200940D62B0100D22B01002820086080010443004003402422084034
:203810003C2F0100A807002010B50B7884074CBF43F0020303F0FD0304064CBF43F0800389
:2038300003F07F0304074CBF43F0080303F0F70384064CBF43F0200303F0DF0310F0AA0F49
:203850000B7004D0107840F00C00107010BD18B9117801F0F301117010BD2DE9F8430D46C7
:203870001646287802281F464FF0000862D1686801784078089C01EB002189B220001CBF4B
:20389000B1F5285F0B205AD14FF42850091A08D0491E1ED0491E2CD0491E22D0491E2ED069
:2038B00048E0DDF82490E8680DF0D6FF214680B2421A4A45ACBF4C46041BA4B26018162879
:2038D00004DA3C802246E86801440EE04FF00D0834E0E8680088022139803070000A7070AD
:2038F0002CE0062038800622E96830460DF0BEFA24E001203880E868017831701EE0E86895
:20391000B0B108213980018831700188090A71704188B1704188090AF170818831718188D2
:20393000090A7171C188B171C088000AF07105E0398003E0A7F800804FF001084046BDE851
:20395000F2832DE9F0470F4682B039780024022970D1804678680A9E0178DFF8E0A09146D8
:20397000427801EB022189B24FF42850091A1D4606D0491E29D0491E4ED0491E39D059E08E
:20399000F8680DF069FF80B2B04204D3A819162803DB0D244FE007244DE0FB682A46494660
:2039B00098190DF063FAAD19F868ADB2C5F11602002140190DF04CFFDAF8000000281CBF02
:2039D0000268002A37D0002123E08EBB022DE0D199F8000099F80110FA6800EB01201080BE
:2039F000DAF8000000281CBF0268002A23D001210FE0EEB9062DCCD1F868062249460DF0BF
:203A100035FADAF8000000281CBF0268002A12D00321404690470EE056B9012DB9D199F855
:203A30000000002813BF0128F9680870802402E00B2400E001242046BDE8F68724240020D0
:203A50000EB58DF801108DF800008848006830B94FF00040002109F0B1FC84490860834811
:203A700000680021002256A30CF0D2FA97E07F4800680021002256A30CF0CAFA7B480068FD
:203A90000221002255A30CF0C3FA97E09DF8010001280ED175480068002100224CA30CF0B8
:203AB000B7FA724800680221002251A30CF0B0FA84E06E4800680021002245A30CF0A8FAF9
:203AD0006A480068022100224FA30CF0A1FA75E066480068002100223DA30CF099FA634826
:203AF0000068022100224DA30CF092FA01208DF804009DF80400002860D09DF80400002835
:203B1000FBD15BE0594800680021002230A30CF07FFA564800680221002244A30CF078FA5A
:203B300001208DF804009DF80400002846D09DF804000028FBD141E04C4800680021002207
:203B500023A30CF065FA49480068022100223CA30CF05EFA01208DF804009DF80400002858
:203B70002CD09DF804000028FBD127E03F4800680021002216A30CF04BFA3C48006802216A
:203B9000002234A30CF044FA01208DF804009DF8040098B19DF804000028FBD10EE09DF846
:203BB0000000801E3FF472AF801E3FF460AF401E8ED0401EA6D0401EBED0D7E70EBDC04618
:203BD0003E3E3E535441434B20415353455254002A2A2A4552524F522A2A2A003E3E204F42
:203BF0005554204F46204D454D4F52592100C0463E3E20494E5445524E414C20465720451C
:203C100052524F522100C0463E3E20494E5445524E414C204552524F522100C03E3E2049BF
:203C300043414C4C2041424F525421003E3E204943414C4C2054494D454F55542100C04630
:203C50003E3E2057524F4E47204150492043414C4C2100C03E3E2044454641554C54205300
:203C700050494E4C4F434B2100C046C0980D00207CB5894D144602460026A2F58062182AEE
:203C90001AD8DFE812F0FF00F900F200EA00E300DD00D600D1001900C600BF00B800AF0019
:203CB000A4001900190080006F00680054004C00420039002C002400282880F28680022969
:203CD00040F0838021880EF04BF80646E2E0012940F0DF80002C00F0DC801135A7E0102972
:203CF00040F0D780002C00F0D48028465030102221460DF0BBF8CDE0012940F0CA80002C09
:203D100000F0C78029468D1D91E0262940F0C180002C00F0BE8005F160002622E8E7012921
:203D300040F0B780002C00F0B4806D1D7FE0602900D13CB9012940F0AC80002C00F0A980B9
:203D50000D3574E005F18600214660220DF08EF8012068739EE0012940F09B8020780DF051
:203D7000FBFF97E0012940F094802078022800F390800C3528702078022814BF301C0120B4
:203D90000DF0E6FF86E0072940F08380611C684606220CF027FF20786946324606F076FACE
:203DB00004460A2C11DA0DF0CFFF40B9204603F0E9FD50200CF080FF09F050FD6AE02A469A
:203DD000012002F12C05285564E0022662E001295FD1A87B21780028A9735BD1207801281C
:203DF00058D1E9E7012954D12478072C51DB102C4FDC0B3537E001294BD124780A2C48DA78
:203E1000093530E0012944D12478022C41DA083529E000293DD10DF097FF10B90DF0B0F8A2
:203E3000C7E701240F351EE0012932D10A35247819E001292DD12478022C2ADAED1D12E06A
:203E5000102926D12B4603F1400050E7012920D12478022C1DDA2D1D05E0012919D124788B
:203E7000042C16DCED1C2C7014E0012911D12478022C0EDAAD1CF6E702290AD1208814351C
:203E9000288007E0012904D12478022CD8BF6D1CE9DD182630467CBD20050020F0B5734842
:203EB000734A0078734C744B74490D2883B03CD8DFE800F0DB07070707D3D358D39292B0B3
:203ED000B0B7146041F204456D494C88AC421FBF4E8BAE424E8EAE4203D11D8069481060FE
:203EF00072E0022C684D1C804FF4A05635D94FF48067E41B1AD0241F012C1DD94FF47F77E8
:203F1000E41B1BD04FF44067E41B0FD0A41E012C0CD9241F0AD0641E012C0DD940F2F937F7
:203F3000E41B012C19D9241F08D096E0022814BF1E80564D156047E0554DFBE7554803685C
:203F50001C7A012C05D141F20240488048834886F0E74E804E834E86ECE700200CF05AFC53
:203F700083207EE04C488178FF2952D0182041434A48146040F204450068841C645A1C80BA
:203F9000641B012C464B70D94FF47F75641B0FD04FF44065641B032C84BF641F012C0BD989
:203FB000A41E012C61D940F2FD35641B06D103E0801C41F201444452136005E000200CF00D
:203FD00029FC85200DF0BCFE03B0BDE8F04035480078012104F072BF40F2044248881880AC
:203FF00090421CBF41F2084290423ED041F60402904211D12C4C2D4A25682D48006800233A
:20401000CDE9002355F8086F2A4B0222B0472A490880F7BD4888188000200CF0FBFB852095
:204030001FE04888188002280DD940F20442801A1BD040F6FC72801A05D0083815D04FF481
:204050007F72801AE8D1887B801CC0B2B528A8BF6620887300204880F7BD00200CF0DAFBA9
:204070008420BDE8FE400DF06BBEF7BD6F4F0020204F0020E9170100504F0020CC4C00206A
:20409000204A002059550110615A0110B1540110755B0110104F0020684E0020804E0020C1
:2040B000313901106E4F0020F04E002002000080EC4E00205DF90000424F00202DE9FE4FF4
:2040D000DFF8FC8198F8011011B900200CF0A2FB0DF072FE0546002405F6C4150027794EBA
:2040F000DFF8E4910EE038460DF028F8417939B1316882790A552946641C0DF01DFEE4B2A7
:204110007F1CFFB299F800008742ECDB98F80100844205D000200CF07DFB82200DF010FEB5
:2041300098F80100012840F0A980002701E07F1CFFB299F80000874280F29A8038460CF0A8
:20415000FDFF054668790028F1D03068A979027891421CBF00200CF05DFBA87986E03068C9
:2041700010F809000CF0EAFF00684268DAF808109068814204BF3D4609F1010900F08D803B
:204190008FE03068047801210FE0D8F80420435C02F5AD7209FB03F509FB04FE555B32F8F6
:2041B0000E20954238BF1C46491CFFB2B942ECDB4FF6FF700DF0BCFD834620460CF0BEFF67
:2041D00040F6C41500684168CDF800A000204FEA5B076F4382460291CDF804B016E02046AD
:2041F0000CF0ACFF01680A78802A04BFDBF810305F610978402907D1344A8079136803EB3B
:20421000401107F5A062CA610AF1010A0098824554DA306810F80A008442F5D0D8F8043048
:2042300009FB00F2991803F5AD73C9899A5A4B08934203D2009B891A8B42E5DA0CF07EFF29
:204250000068D0F804B0029A0198DBF80810936800EBD0704010A1F6C41105FB00300DF03B
:20427000A7FD0028BBD0306810F80A00BDE8FE8F00200CF0CFFA82200DF062FD98F8011077
:2042900030680DF051FD306800780CF057FF00250168D1F804A04FF001096F1CA145FFF61F
:2042B0005EAFEDB2002D1CBFF8B20028A2464FF4C0797FF466AF3068047879E72046D5E7E6
:2042D000684E0020004F00207B4F0020844E00202DE9F84FDFF8F0B10746ABF13500DFF8E3
:2042F000DC910068800880F0D880704800680068804779490831D1F8008000254FEA2872FE
:204310005FEA985102F101020AD2C0F13E0110F10A0F4FEAE101D8BF08218A42B8BF0A1C3B
:20433000634BD3F87C11C1F304611629A8BF20391B68C3F30443162BA8BF203B9A46511883
:20435000162905DA11F10A0FB8BF6FF0090100E01521584B584E01F01F0242F4F8521A80A9
:20437000326812F0030F18BF0125D20828BF45F002050FB145F004054A4692F90730C31A58
:20439000052B04DA9379AB4208BF918865D0DFF830E10F28A0F10F0C25DB0CEB0013A3F188
:2043B000F00C4FEA2C26072E88BF07263446062C88BF06245EF82470042303EB8403744660
:2043D000E358DB1B03F0FF04EF0824BFC3F307273C44AF0824BFC3F307473C446F0828BFEC
:2043F00004EB136401E0002426465EF826E0EF080EF0FF0324BFCEF307273B44AF0824BF98
:20441000CEF307473B446F0828BF03EB1E63A4B2ACEB0626BAEB010104FB06F404F18004FF
:2044300003EB1423D8BF0121342408F0FF074C437C43B4FBF3F14FF6FF738B4238BF191CA7
:20445000802889B2918005DA10F1800FB8BF6FF07F0000E07F20D07195711A4800681F29BC
:2044700010604FF0000008D340F2FF128A4206D24908401C8A42FBD301E01F219180134FE0
:204490000F39090940EAC10047EA0001CBF8FB1F0026CBF8FF6FBDE8F88F0D490D4F4A46F3
:2044B00008200F60921D1070BDE8F88FEC0100103C1100506E620840242208401C2400205A
:2044D0009C130050082009403500094000E7A48030100940FDFDA400AC3F00502DE9FE4F0E
:2044F0000E468246307AC10693461C464FF000090CD558460DF014FC030000F0EA800A2287
:204510003146504698475FEA00094DD13078DDF838800D9D0C9F02281AD170680178407887
:2045300001EB002189B24FF42052891A012910D9891E3AD0491E14D0FD397BD0491E00F0E4
:204550008280491E6ED0491E74D0491E00F09780ADE0002D2AD1F068017839800278416829
:2045700089E0002D22D101203880F0680178217000217089401C80B20DF0CEFB398860B127
:204590000278921C51183980418961704189090AA17002784168E01C6EE0091D39800422C6
:2045B0000021601C0DF054F995E0002D68D1F0680588042139802570290A617028460DF161
:2045D00002010DF0A9FB5FEA000821D0D8F80C50BDF802204FF6FF766B4631460DF098FB70
:2045F00050B998F80030D8F804203C4802210DF08BFB08B9ADF80060287802280AD1696888
:204610000222201D0CF032FC3888801C388001E0ADF80050BDF80000A070BDF80000000A91
:20463000E07058E0002D2BD1F068016850460BF0DAFF02E025BBF068008802213980207080
:20465000000A607047E0F0680DF006F980B229468842B8BF4FF007093DDB814208BF002200
:2046700006D008EB01028242B2BF4246451BAAB23A80F068014420460CF0F8FB2BE015B168
:204690004FF00B0927E0F0680721398001782170417861704188A1704188090AE170017962
:2046B0002171C1886171C088000AA07113E058460DF026FB5FEA00090BD00F980290CDF800
:2046D000048000953B46224631465046C847814601E04FF00E094846BDE8FE8F6C31010050
:2046F000F8B57E4F04463868C16E0025002940F0F18010200CF060FE39680028C86600F0B7
:20471000E7808E6E102221460CF0B0FB39680878002840F08E80CA6ED6F8980012F80CCFDC
:2047300000F001030CF0010C634518BF0023400843EA4000C6F89800C0F34003D2F800C03F
:20475000CCF3400C634506BF430803F00103002320F0020040EA4300C6F89800C0F3800361
:20477000D2F800C0CCF3800C634506BF830803F00103002320F0040040EA8300C6F898002B
:20479000C0F3C003D2F800C0CCF3C00C634506BFC30803F00103002320F0080040EAC30027
:2047B000C6F89800C0F30023D2F800C0CCF3002C634506BF030A03F00103002320F48070B0
:2047D00040EA0320C6F89800C0F34023D2F800C0CCF3402C634506BF430A03F00103002387
:2047F00020F4007040EA4320C6F89800C0F38023D2F800C0CCF3802C634506BF830A03F00A
:204810000103002320F4806040EA8320C6F89800C0F3C0231268C2F3C022934206BFC20A3D
:2048300002F00102002220F4006040EAC220C6F898008A6E92F89500030718D5C86E43688C
:20485000C3F3C00098B1C87840F00800C870D6F8981023480140C6F898103868C06EC1685A
:2048700021F48071C16049084900C16003E092F8330001282AD0607800281CBF7178002996
:2048900008D13968CA78130708D5002804BF7078002803D03A68052111711CE06068C0F3C6
:2048B000800040B996F8950010F0040002D10120087110E00AD00878002819BF3078217850
:2048D000317820780DF018FA054604E0182502E0132500E011252846F2BD00BF304F002061
:2048F000FEFEFFFF00B5ADF12C0D019100900198800FC0F0D080002007F010F967490020E8
:204910000860684866490860012005F004F866480CF0CEFB654940F60A0008806449002090
:2049300008806449087820F00F00087062490020086062486149007820F00F0040F00100CC
:2049500008700098806806900698002141805C48007810B10098407CD0B10098806800887F
:2049700040F60201814205D0009880680088B0F5C15F05D10699088A20F47C70088204E014
:204990000699088B20F47C7008830098002141740098806802A90BF0CDFE02A80CF0B4FC95
:2049B0000698079002E00798406807900798406830B107984068008840F60A018142F2D134
:2049D0003A49079841600799487B20F00F0048733C480CF074FD806809900998008840F6F6
:2049F0000301814205D00998008840F60401814203D135490020086020E00098008CE8B14D
:204A10000098203008900898002141800898002141600899087B20F00F0008730898089923
:204A3000407B20F00F0040F0010048732249089808602249087820F00F00087017480068E4
:204A50000028FBD015490020086000988168487C20F0040048741D48007830B10AF050F957
:204A70000028FBD00CF0DEFE11E01948006801680120884701280AD007980799407B20F03B
:204A90000F0040F00100487312480CF011FB00980349806808600BB000BDC0461C10044087
:204AB0000010044001010E048D0B00008423002086230020902300208823002091230020E4
:204AD0007E210020482300206C21002085210020E0010010EDC4000000B5ADF12C0D049344
:204AF000039202910190019878B1029868B1039858B1049848B10C9838B10D9828B10D988F
:204B1000006A10B10D98406A48B90D9820B10D986FF0010180F82C106FF00100CDE00D9828
:204B3000816A674800680DF0E3F80D9981F82C000D9890F92C0038B90D986FF0020180F876
:204B50002C106FF00200B8E00D980D9A016A0D985288007800EB80001218143290B2884776
:204B70005849086058B9564800680DF0BDF80D984FF0FF3180F82C104FF0FF309DE00D98FB
:204B9000418850480068401805900D9805990078001D401806900D9806990078001D401858
:204BB00007900D9807990078001D401808900D9808990078001D401809900D9808F020FA01
:204BD0000D980078C01C411000EB91700599801008600D980078C01C411000EB9170069924
:204BF000801008600D980078C01C411000EB91700799801008600D980078C01C411000EBAA
:204C100091700899801008600D980078C01C411000EB91700999801008600D9A059801993C
:204C30001278001D05F0AAFE0D9A069802991278001D05F0A3FE0D9A079803991278001D7A
:204C500005F09CFE09980090089B0699079A05980DF046F88DF828000D9A089904981278AE
:204C7000091D05F08BFE0D98099902780C98091D05F084FE0D980D9900784A8800EB80007E
:204C9000121810480068002107F044F80D98416A0C48006888470A4800680DF025F89DF882
:204CB0002800992802D100208DF828009DF928000D9981F82C009DF928000BB000BDC04616
:204CD00064160020884F00202DE9F0410446764DA178A869ADF1180D891F00F0DE80C91E15
:204CF00000F0C980491E5FD0491E48D0C91E3CD0481E40F0D480287A697AB8B9687800287B
:204D100031D0A0880CF0E8FF071C00F0C880A07A40080FD3787968B1E168890A0AD2B91D40
:204D300001AA05F0B3FA0A2804D10321A0880CF0CFFFB4E0287B022802D1A07A0009F4D3DB
:204D5000A088797904F1080201F028F8A869002800F0A5804368002B00F0A18000210A4673
:204D7000A08898479BE00521E0E7002800F097804368002B00F0938062780221F0E70CF0DC
:204D9000FBFA002800F08B80A86950B1076847B1206900906189227B637BE01C3C46A0478F
:204DB0007DE060890121C2E767784FF00008002F52D1A17949084FD3EF69002F4CD101A880
:204DD00041460E220CF044FDA0880CF085FF071C65D0606940B97879B91D06228DF80A008F
:204DF00001A80CF043F819E06669307C062206F111018DF80A0001A80CF038F807F10C00B6
:204E1000B91D06220CF032F8B81D062206F111010CF02CF8307C40F002007871A1799DF8C2
:204E30001120C1F3800010438DF81100080905D39DF8110040F008008DF8110001A82146A7
:204E500000F034F828B92878022104F037F8404626E0A8694FF0150808B34368FBB1A0882C
:204E7000627801219847B8F1000F18D0A86943680321424674E7E078211D002205F006FA37
:204E90000A280CDA410001EB800004F10C0225300421C0B20BF0A9FD01E008F0B1FE012004
:204EB00006B0BDE8F081C046200500202DE9FF478146704CDFF8C0A1E069884600284CD158
:204ED000B9F1000F00F09480B8F1000F00F0908048460BF019F805460A2D257422DAD8F8CC
:204EF0001470002F37D0680010216A4600EB85002330C0B20BF00CFB90B96846FF2110221F
:204F10000BF0C0FE60B95046007838B999F80600494600F001000CF0D7FE01E00120A074B2
:204F3000E0691AE004F1E6070A2600253846FF2106220BF0A7FE68B9761E07F10E0705F1C9
:204F50000105F3D1607C002804BF0A2020744FD094F836502574E06900E0257C0A2D47DA06
:204F7000002835D168000E214A4600EB85002030C0B20BF03AFD207C09F06AFA6846FF21A1
:204F900010220CF065FC207C10216A467030C0B20BF02BFD217C0E220801A0EB4100001905
:204FB0004946E6300BF062FFD8F814206AB15046007840B9107C02F11101002300F0010015
:204FD0000CF07EFE01E00120A074C4F81C804CE08268002A3ED10269002A2FD142690ABB87
:204FF000C2683AB9A07B08B10AF0A4FF0BF0EEFC01203BE06800102100EB85002430C0B223
:205010000BF0F3FCE769217CFA68480000EB8100103225300421C0B20BF0E7FCE16900201D
:20503000C86022E06800102100EB85002330C0B20BF0DBFCE1690020486116E068001C21E8
:2050500000EB85002230C0B20BF0CFFCE169002008610AE068001C2100EB85002130C0B2B1
:205070000BF0C3FCE1690020886000200090BDE8FF87C046200500205A4F00202DE9F04FD0
:20509000ADF1140D0BF030F9039020B108F012FC4FF0FF3003906A4C04F10800006800B1E6
:2050B00080475F4807780025029736E00098E16810F8062CA0F10C07032A2CD0029E9DF802
:2050D000053056B1606A2946401E10F8012F934205D0761E01F10101F7D1FF2600E0CEB236
:2050F00050480068FF2E00F1080011D038790AF07DFAB979012904D0022904BF00998870C8
:2051100001E000990870009930460BF0D3FB04E00068804701E001B1884742480068C36922
:205130000DF105016A4601A898470028BED03E4A029E11683046AE42CCBF761B012690464D
:205150006F00CB5BDFF8E4B0DFF8E49023B96D1C761EEDB2F4D121E0A8421FDD5E46306874
:205170008047D8F80010002231F807A0CA53D9F8001088472F4850F825202570514628461B
:2051900090470546FF20207030688047D8F800107A5A15437D52D9F8001088470BF0A4F8AD
:2051B00007460398B8421DD007B9234FA069B84238BF071C5E46306880478246194800682D
:2051D000016AE0698847226A16481C49521C00682262C56804F11C033846A84748460168EE
:2051F000504688470F48616802682069243291B9029ED8F800100025AE420EDD31F81500C9
:2052100030B108480068416A20698847D8F800106D1CEDB2F0E71168884705B0BDE8F08FE2
:2052300074310100400F002038240020140D0020180D0020982D01008EC2F52835F60000E9
:20525000280C002066480178002900D170472DE9F043491E032985B004D9891F012940F220
:20527000BC80B4E05F4CDFF880912168DFF87C8108685F4E00F10805062205F1080102A872
:205290000BF0F4FD0622A91C68460BF0EFFD2878C1091D2700F00F02032AC0F3801537D164
:2052B0006079C0F3800081421ED12169062202A80BF0E0FA00280AD0694628460CF06CFD6B
:2052D000002804D0314668460CF062FDFF2879D04743D8F80000807AF519002818BF022847
:2052F0000AD0012818BF03286CD1F25D691C48460CF0E2FC102865D06B46EA1D29464846FE
:205310000CF0D6FC06226946E81D0BF0AFFD59E000F00F00052860D16079C0F380008142C7
:2053300050D12169062202A80BF0A4FA002849D0694628460CF030FD002843D03146684660
:205350000CF026FDFF283DD04743D8F80000807AF519002818BF01280AD0022818BF03285A
:2053700030D1F25D691C48460CF0A6FC102829D040F202400CF098FC6B46EA1D2946484632
:205390000CF096FC06226946E81D0BF06FFDD8F80010F05D88760622D8F80000691C143040
:2053B0000BF064FD1348144A41F20441418041834186124801801249124808600121107862
:2053D00003F07CFD21680A680020107105E000200BF020FA86200CF0B3FC05B0BDE8F0837D
:2053F0006F4F0020F44B0020CC470020104F0020AC450020204A00206E4F0020504F002077
:20541000204F0020595501102DE9F04FADF1240D079001F03FFF614800780AF061FE604D1D
:205430000024012808D90A380FD0801E04D0401E0ED0401E09D006E00BF064FC022804BFFA
:2054500001210C1C06D0696805E005211F2401E0032107246960534A1068C0F38150012842
:2054700006D152F80C0C0127020E07FA02F004430BF05AFF524AFF230818401E471C2860F6
:205490007F1E02F8013BFBD1079A1268002702F0FF03FE2B20D0DDF81CC096463B460126D9
:2054B0000EF0FF02FF2A10D0904205D3914203D806FA02F2144201D002206CE017430EF09B
:2054D000FF02DFF8FCE00EF802305CF804EF5B1C0EF0FF02FE2AE5D1092004F0D7FA0798A8
:2054F0000121A86005F128000AF0B6FC05F19806A8464FF0010A4FF0040B0025A9460AFA76
:2055100005F0044216D1074204BF05F0FF0141F4C04104D02A480799405D51F820102248BC
:2055300003F0F0FBE8B24FF0FF310BF0CFFAC6F8009001E0C6F800B0D8F800006D1C361D67
:205550008542DCD904A80BF0B6FE184C184A2078102104AB059008F10C0009F031FD6846B7
:205570000BF0F2FECDF80C906A4660681149029008F1640009F0BEFD0F4951F80D0C20F48C
:20559000F85040F4005041F80D0C0C4FC1F8FFAF4846C7F800A009B0BDE8F08F47240020C6
:2055B00094060020B43F0050007FC767E4300100F90A0100D1EC00000D3009400800094084
:2055D000D806002060480178042900D870472DE9F84F891F2FD0491E012900F2AA805B4C88
:2055F000A078FF2827D00BF0A9FD82460AF16C0670680CF055FB0746387903281BD1B86836
:20561000017811F0030904D17068BDE8F24F0CF043BB457800F102080AF20F10B9F1030FD8
:2056300000900DD045B1307830B900983D21417001210098017084E0454801780129FAD036
:205650009AF894000AF59A7B58B32D1F4346EAB2494650460CF01CFB50B900993D20487095
:20567000012000990870BDE8F24F3A480CF00CBB39480168884700904FF4C0709AF8062049
:20569000616842438818002180F83911DBF800109BF80600490807F0EBF9304900980A68FE
:2056B00090470020B9F1030FB8602ED02C4840690078810708D5C0074CBF03200020EDB263
:2056D000401918F8000000E0812030722549BBF83E000A78904211D3317A802918BF8129C2
:2056F0000FBF7F21204A1078091A49B200914B46A078EAB241460CF0C3FA11E0A0784B466C
:20571000EAB241460CF0B8FA0AE00F480178082903D0414650460CF0ABFA404608F0F4F9C1
:2057300070680CF0B9FA39465046BDE8F44F0CF09BBA00200BF06EF8BDE8F24F86200CF07B
:20575000FFBABDE8F18F00BF6F4F0020684E0020794F0020AC450020140D0020180D002069
:20577000783101006B4F0020704F002000B5ADF11C0D01910090FCF777F85548554A006812
:2057900000214FF0FF330CF06BFA029002980028F3D0002003900DF1120103AA04A808F0DA
:2057B000C7FD40BB01208DF81400BDF81000102819D149489DF812100078884213D1039870
:2057D0000690069800884FF6FF71814206D106984088400807D306F0E7F804E0039805F0DD
:2057F00069F98DF81400039828B19DF8140010B103980BF011FD0298C00F13D30CE0374862
:2058100000680AF0E5FC0590059828B1059807F077FD05980BF090FE304800680CF01CFA0A
:205830000028ECD00298400813D32D480078062807D02C480078012803D02B4800780128BE
:2058500005D12A4847F2305108F0BAFD01E003F04FFD029880081ED32548007801280DD168
:20587000244800680821002211A30AF0D1FB224800681521002209F0F5FD0CE01D480068B1
:20589000082100220EA30AF0C3FB1B4800681521012209F0E7FD0298C008FFF46EAFFDF7DD
:2058B000EDFA164841F2883108F08AFD65E7C0465042204348415247453A204F4E00C0467D
:2058D0005042204348415247453A204F464600C01C230020070000C0182300202023002083
:2058F0009C0D0020AB0D0020AC0D0020F8210020A50D0020980D002024230020B0210020F6
:205910002DE9F843614C5A4D5A4EDFF870815E4F94F8E4100846401E0B2864D8DFE800F063
:205930007B2C43062343062343067664042907D001220A2945F8212C14BF0220032004E0D5
:20595000202045F8210C0120024684F8E200002045F8390C0827C5F8FF7FC5F8F37F45F84E
:20597000392CBDE8F883052914BF09200620002784F8E400376075E094F8E170383D01205C
:20599000002FC5F81B0004BF0620002102D00021F160032084F8E400032045F8010C316021
:2059B000306880085ED294F8E4103348012703290ED0006845680021602205230091404663
:2059D000A84794F8E400062814BF0A200720CFE70068456800216022052302200090404638
:2059F000A8470420C4E7FEE72548264F0026012506600E203D6003F08FFF022009F08CFF6E
:205A100084F8E45084F8E360BDE8F883002038600C25786024E04FF08059D9F8A00101682F
:205A3000202088472C3D0F2045F8010C41F61D56C5F80360D9F8A401466800214FF4C072E1
:205A50000723022540460095B047D9F8A401C66800214FF4C07207234046B0470120386039
:205A700084F8E45004F178000BF0C4FEBDE8F88339400C4038600C40A401001000A00C40D2
:205A90002C500C4004800C4034600C40A807002000B5ADF1240D0393029201910090009847
:205AB00058B1019848B1029838B1039828B10398006A10B10398406A48B9039820B1039831
:205AD0006FF0010180F82C106FF001009FE00398816A504800680CF00BF9039981F82C00FB
:205AF000039890F92C0038B903986FF0020180F82C106FF002008AE00398039A016A03989B
:205B10005288007800EB400012180C3290B288474149086058B93F4800680CF0E5F8039819
:205B30004FF0FF3180F82C104FF0FF306FE00398418839480068401804900398049900788C
:205B5000001D40180590039805990078001D40180690039807F054FA03980078C01C41104F
:205B700000EB917004998010086003980078C01C411000EB917005998010086003980078BF
:205B9000C01C411000EB9170069980100860039A049800991278001D04F0F0FE04980499B1
:205BB000059A069B0CF054F88DF81C00039A059901981278091D04F0E1FE039A069902987F
:205BD0001278091D04F0DAFE0398039900784A8800EB4000121810480068002106F09AF8FA
:205BF0000398416A0C48006888470A4800680CF07BF89DF81C00992802D100208DF81C0095
:205C10009DF91C00039981F82C009DF91C0009B000BDC04664160020884F002008B50020E5
:205C3000ADF8000000208DF8020000208DF80300594900200AF07FFB574900200AF07BFBFA
:205C5000012069460AF023FA08B90020A2E0BDF9000040F22141814201D000209AE013203F
:205C70000AF027FD08B9002094E00020ADF8000006E0062069460AF0A5FC08B9002089E03C
:205C9000BDF900004009F4D3612000210AF040FB08B900207EE03E2052210AF039FB08B958
:205CB000002077E03F2000210AF032FB08B9002070E042F210700AF0B3FA4FF496600AF0F7
:205CD000E7FC01B24A200AF036FB08B9002061E041F258100AF0DCFC01B24C200AF02BFBBB
:205CF00008B9002056E04FF448600AF0D1FC01B250200AF020FB08B900204BE068200AF005
:205D1000C7FC01B25B200AF016FB08B9002041E042F210700AF084FA07F049FF8DF8020083
:205D300042F210700AF07CFA9DF8021060200AF0EFFA08B900202DE042F210700AF070FA1F
:205D50000DF103000AF060FE08B9002022E042F210700AF065FA9DF803009DF802108842E1
:205D7000ABD142200AF0A5FC08B9002012E00020ADF8000006E0062069460AF023FC08B96D
:205D9000002007E0BDF900004009F4D220200AF090FC012008BDC0460080FFFF2DE9F041B0
:205DB00090460E460446ADF1A80D0BF095FF071C00F0AB8068460021A4220BF049FDADF8C4
:205DD0000040554C279B534AE57AE0788DF8A0501A40A57A8DF80400290105F0030305F02B
:205DF0000400257B134301F480721A43484B01F4C061022D03EA020341EA030140EA010031
:205E100027904FF0000008BF01208DF837000BF01BFF412809DB207B00280CBF00200820A0
:205E30009DF8991008438DF89900607B002804BF00208DF8380017D001208DF8380004F14E
:205E5000860120220DF139000BF010F80DF1590004F1A60120220BF009F80DF1790004F192
:205E7000C60120220BF002F8A07940B18DF8260004F1500110220DF127000AF0F7FF6079F9
:205E900038B104F16000B91D062205460AF0F2FC68B92079002804BF00208DF8050016D04E
:205EB0008DF8050004F140010DF106000CE0607905F1160110228DF805000DF106000AF082
:205ED000D5FF0DF11600A91D10220AF0CFFFE07920B11EB1279941F002012791002100B193
:205EF0000121A7789DF89900002F41EA00018DF899100CBF002004209DF8991008438DF87D
:205F10009900414668460BF09BFE2AB0BDE8F081FBF9FFFFFCFEFFFF2005002070B5414C3E
:205F3000414B2568186855F8183F00224FF0FF3198473E483E4A416B3E4C88683E4D41792B
:205F5000117000260BF078FE3C480BF071FE0BF06BFE3B48026800215171A02301680722A2
:205F7000CB804A720321026811720021036859770268D176036883F85C1001210268117786
:205F9000036883F85D100021006880F85E100EE06068F6B24FF4C071714308444279012A77
:205FB00004D130460BF0CAF80BF03AFE761C2978F0B28842ECD30BF02FFE2248224A0178C1
:205FD000117009F0D3F80BF023FE2049204A002008700021117001201E4A10701E4A117051
:205FF0001E4A10701B201E4A11701E4A11701E4A11804FF4A4711D4A1080FB201C4A118042
:206010001C4A1D49108040F648000880FB211B4A11801B4A10800BF0F7FD1A49002008701D
:2060300070BD00BFF04E0020EC4E002078310100714F0020684E00207B4F0020CC4700202F
:20605000104F00206D4F00207A4F0020734F0020744F0020754F0020764F0020774F002078
:20607000784F0020794F0020524F0020444F0020464F0020484F00204A4F00204C4F0020ED
:206090004E4F00206F4F002000B5ADF1240D0291019001F0B5FF4748474A006800214FF020
:2060B000FF330BF0DDFD039003980028F3D0002004900DF1160104AA05A808F039F930BB77
:2060D000BDF8140010281DD13C489DF816100078884217D104980690069800884FF6FF714B
:2060F00081420CD106984088C00B0BD334483549042204230090102003F0CCFF02E004989E
:2061100005F0AAFF049810B104980BF085F80398400840D32C48007818B92C480078002899
:2061300039D02A48007818B103208DF818000EE0274800788DF81800264800788DF81900DD
:2061500025490A680DF11A00026089888180234800788DF82000224800788DF82100174854
:206170000178502008F0F6FA1E49024606AB102003F090FF78B11C49082008701B48006833
:2061900048B11A480068006828B11848006801681548007888470398800803D314490020A0
:2061B00003F072F90398C008FFF475AF07F096FF71E7C0467423002007000080702300201C
:2061D0007C230020FB090100300D0020310D00208023002081230020230F00208223002092
:2061F000832300205944011078230020440D0020680E00208FB506AF029301920091ADF802
:206210000C0000208DF80E00009900980A7840684E490AF023F9E8B93888022803DD072015
:206230008DF80E008EE03888B988C0F10200884201DDB88802E03888C0F102000299088039
:2062500000993A88C9688918029A0198128804F095FB77E0009900980A7840683C490AF07D
:20627000FDF8E8B93888012803DD07208DF80E0068E03888B988C0F10100884201DDB88812
:2062900002E03888C0F101000299088000993A88C9688918029A0198128804F06FFB51E0EC
:2062B000009900980A7840682A490AF0D7F8E8B93888012803DD07208DF80E0042E0388831
:2062D000B988C0F10100884201DDB88802E03888C0F101000299088000993A88C96889182F
:2062F000029A0198128804F049FB2BE0009900980A78406818490AF0B1F8E8B93888012893
:2063100003DD07208DF80E001CE03888B988C0F10100884201DDB88802E03888C0F10100E8
:206330000299088000993A88C9688918029A0198128804F023FB05E00298002101800A20D1
:206350008DF80E009DF80E0000908FBD08300100F82F0100D82F0100E82F0100B0B5456888
:2063700084684F48297BADF1180D012916D0217E627E4C4B2F7E0143009143EA02010191B9
:20639000494937F0010718BF081CA27E1043029095F88D000322FF2811D00DE0677E217E74
:2063B0003843A37E019041F00041009143F000403E49029095F88D00014304220391FE20DB
:2063D0004DF82200694605F1900004F00BFCC5F89C00002808BF00205FD0287B344951F816
:2063F000200001282BD02068B0F1804F14BF22220A22217ED5F89C0009F018FD2068B0F1CF
:20641000804F14BF21220922617ED5F89C0009F00DFD2068B0F1804F14BF24220C22A17EB3
:20643000D5F89C0009F002FD95F88D10FF2933D02068B0F1804F14BF23220B2228E02068C9
:20645000B0F1804F14BF21220922217ED5F89C0009F0ECFC2068B0F1804F14BF22220A2257
:20647000617ED5F89C0009F0E1FC2068B0F1804F14BF24220C22A17ED5F89C0009F0D6FC5C
:206490002068B0F1804F14BF23220B2295F88D10D5F89C0009F0CAFC012006B0B0BDC04613
:2064B000000480A0004000800004C0A0002000800C2D010000B5ADF1140D00F0EBFE3649DE
:2064D000086840F00200086068460AF03DFF334800780290334932486A4608F00BFE6846E4
:2064F0000AF0E9FE00208DF808002F48007801902F4A2E4819216B4608F062FD68460AF0A5
:2065100023FF2C48007802902C492B486A4608F0F1FD68460AF0CFFE01208DF808002848BA
:2065300000780190284A27481A216B4608F048FD264827490022002307F0B2FE25480AF007
:20655000B7FD2548254A0421002309F0F1FD24494FF6FF7008802349012008702249002033
:2065700008702249002008702149002008702149002008702049002008702049002008708A
:206590001F49002008701F49002008601E490520086005B000BDC0460020094016310100DE
:2065B000FC200020E508010014310100C42200208102010017310100302100201582000080
:2065D00015310100E0220020FD9F0000D421002061110100397000003423002021CE00000F
:2065F000F82000207D2100207E210020812100208221002083210020842100208521002002
:20661000862100206C210020782100202DE9F04704466568A6680F46ADF1200D0BF0F4F8C4
:2066300095F8DC10012903D1FAF758FC002085E04FF0010A85F8DCA0FAF750FC3878287041
:2066500078686860387AE860706803F01FFA204608F05EF8F868676828B9A06890F81490AC
:2066700090F8158003E090F8009090F80180B9F1FF0F15D0B8F1FF0F12D0324840EA090105
:206690000491FE23069340EA080004A9059007F1980004F0A7FAC7F8A400D7F8A40070B903
:2066B000294800240460294F3C60706803F034F90BF0AAF885F8DC40FAF710FC3DE04946E6
:2066D0000D2209F0B3FBD7F8A40041460E2209F0ADFB68460AF0EFFD307B00946B46B1686C
:2066F0001B4A019005F1100008F06AFC68460AF02BFE306900946A461649029005F12C006F
:2067100008F0F8FC05F16000514609F0A5FB287830B905F17C00002109F09EFB0E4868602B
:2067300000202872C5F8BC000C4AC5F8C0000421234605F1C80009F0FBFC204608B0BDE844
:20675000F087C0460020008404280040100405421581000063D700008D170100991301001F
:20677000F0B5514C20780D46E90BADF11C0DC90372D1A80860D2E069216A6A080ED2E8081A
:2067900028BF85F0040580F08C80680904D305F049F985F0100584E0002083E0868861B9F0
